:1000000000000320D1010000D9900000959000006D
:10001000959000009590000095900000959000004C
:10002000959000009590000095900000D9900000F8
:10003000D9900000959000001D8C0000218C0000DC
:10004000D9900000D9900000D9900000D99000000C
:10005000D9900000D9900000D9900000D9900000FC
:10006000D9900000D9900000D9900000D9900000EC
:10007000D9900000D9900000D9900000D9900000DC
:10008000D9900000D9900000D9900000D9900000CC
:10009000D9900000D9900000D9900000D9900000BC
:1000A000D9900000D9900000D9900000D9900000AC
:1000B000D9900000D9900000D9900000D99000009C
:1000C000D9900000D9900000D9900000D99000008C
:1000D000D9900000D9900000D9900000D99000007C
:1000E000D9900000D9900000D9900000D99000006C
:1000F000D9900000D9900000D9900000D99000005C
:10010000D9900000D9900000D9900000D99000004B
:10011000D9900000B1970000D9900000D99000005C
:10012000D9900000D9900000D9900000D99000002B
:10013000D9900000D9900000D9900000D99000001B
:10014000D9900000D9900000D9900000D99000000B
:10015000D9900000D9900000D9900000D9900000FB
:10016000D9900000D9900000D9900000D9900000EB
:10017000D9900000D9900000D9900000D9900000DB
:10018000D9900000D9900000D9900000D9900000CB
:10019000D9900000D9900000D9900000D9900000BB
:1001A000D9900000D9900000D9900000D9900000AB
:1001B000D9900000D9900000D9900000D99000009B
:1001C000D9900000D9900000D9900000D99000008B
:1001D0005F4B4CF2205210B5DA814DF62812DA81CD
:1001E00000BF00BF08F07CFF5A4B4FF030621A632B
:1001F000594A9A63594ADA634FF0E0234FF4700288
:10020000C3F8882D03F5E823554A1A60554B9A78B0
:10021000110703D59A7842F008029A70524B53485E
:10022000AA221A70524BDA1C121AC11E22F00302C3
:10023000994288BF00224F4908F058FE4E4B4F4864
:10024000DA1C121AC11E22F00302994288BF002252
:1002500000210BF041FD4A494A484FF4E87208F08A
:1002600045FE494B494A802103F8011B9342FBD1CB
:100270004FF0E023434AC3F8082D454B8A221A70F9
:10028000A3F5805324225A70A0221A709A799207FB
:10029000FCD59A79D406FCD43E4A937903F00C033A
:1002A000082BFAD1304B60225A70DA78802AFCD1C0
:1002B000384B01221A715D225A719A799006FCD549
:1002C0009A795106FCD5234A33495164002191643F
:1002D000202119702F498B7903F00C030C2BFAD1D4
:1002E0002E4B53602E4A136913F4807303D153616C
:1002F0004FF4A85313614FF0E0232A4A5A610022B9
:100300009A6107221A61284AC3F8202D62B609F0C3
:1003100041F8234B5B69DA0705D5244809F02EF82C
:10032000234B244ADA61244B1B785B0609D5204C09
:10033000204BE2699A4204D11C4809F01FF80023BF
:10034000E36108F0D3FE0BF0BDFD08F0C7FDFEE74A
:100350000020054000800440823F04000100002B83
:100360000300008500D0074000E007403007FF1F72
:10037000D015FF1FA0260100247FFF1FD015FF1FEF
:10038000000000000002FF1F00E400E064E400E061
:10039000005006400040064000000602C010070062
:1003A00000D003401FBF020000002020D000F764EF
:1003B00000E00340A5C3945A00F00740FFFFFFFF91
:1003C000FFFFFFFFFFFFFFFFFFFFFFFFFFFFFFFF3D
:1003D000FFFFFFFFFFFFFFFFFFFFFFFFFFFFFFFF2D
:1003E000FFFFFFFFFFFFFFFFFFFFFFFFFFFFFFFF1D
:1003F000FFFFFFFFFFFFFFFFFFFFFFFFFFFFFFFF0D
:10040000FFFFFFFFFFFFFFFFFFFFFFFFDEF9FFFF23
:100410000548064B1B1AD90F01EBA301491002D066
:10042000034B03B118477047D015FF1FD015FF1FAE
:100430000000000008B5054B1BB105490548AFF3A6
:100440000080BDE80840FFF7E3BF00BF00000000E8
:10045000D015FF1F9826010000207047034B186835
:1004600010B103681B681847704700BFEC6DFF1F91
:10047000034B186810B103681B681847704700BF2A
:10048000F06DFF1F00F500502DE9F04196464A4AF5
:10049000C0F8101914681368484DB5FBF1F043F02B
:1004A000A043B5FBF0F590B04D1B04F080741360D1
:1004B0001368DE01FCD505284FF0000C22D93F4E11
:1004C00063465A1C0233B0FBF3F7192F07FB03F303
:1004D0000FD8B6FBF3F3CB1A002BB8BF5B42AB428D
:1004E00009DA1D4694460B2F06D9122F9CBF1D46D4
:1004F00094461346E5E7F6D0052FFAD80CF1010330
:10050000B0FBF3F00538142848D8B5F5967F45DCE4
:1005100000EB40002A4FDFF8A08000F140030DEB14
:1005200003050FCF6E460FC60FCF0FC60FCF0FC6F6
:1005300097E80F0007C626F8023B1B0C337015F82E
:100540003F3C15F83E2C15F8401CDB04120402F465
:10055000E02203F46013134301F00702134343F452
:10056000800343EA0C6343F48043C8F80430D8F8AE
:100570000430BEF1020F14BF23F0080343F0080358
:10058000C8F804303CB90C4A136823F08053136058
:100590001368DB01FCD410B0BDE8F081002CFAD167
:1005A000054A136823F0805313601368D901FCD403
:1005B00010B0BDE8F08100BF00400A400024F40004
:1005C000F01B010000F500502DE9F04196464A4A23
:1005D000C0F8101914681368484DB5FBF1F043F0EA
:1005E000A043B5FBF0F590B04D1B04F08074136090
:1005F0001368DE01FCD505284FF0000C22D93F4ED0
:1006000063465A1C0233B0FBF3F7192F07FB03F3C1
:100610000FD8B6FBF3F3CB1A002BB8BF5B42AB424B
:1006200009DA1D4694460B2F06D9122F9CBF1D4692
:1006300094461346E5E7F6D0052FFAD80CF10103EE
:10064000B0FBF3F00538142848D8B5F5967F45DCA3
:1006500000EB40002A4FDFF8A08000F140030DEBD3
:1006600003050FCF6E460FC60FCF0FC60FCF0FC6B5
:1006700097E80F0007C626F8023B1B0C337015F8ED
:100680003F3C15F83E2C15F8401CDB04120402F424
:10069000E02203F46013134301F00702134343F411
:1006A000800343EA0C6343F48043C8F80430D8F86D
:1006B0000430BEF1020F14BF23F0080343F0080317
:1006C000C8F804303CB90C4A136823F08053136017
:1006D0001368DB01FCD410B0BDE8F081002CFAD126
:1006E000054A136823F0805313601368D901FCD4C2
:1006F00010B0BDE8F08100BF004002400024F400CB
:10070000F01B010000207047002070470820704750
:1007100000207047002070470820704700B583B064
:1007200008F01AFF064B074A1B680193019B064914
:10073000A2FB032308609809002103B05DF804FBC5
:10074000E47AFF1FD34D62101470FF1F10490B682D
:10075000486B0A68496B02F07F02C1F30361013202
:100760000431B2EB410F10D303F07F03C0F30360F9
:10077000053B0130A3EB4003DBB2054A106800F0F3
:100780007F000130C01AC0B270470023F5E700BFF8
:1007900000400A4010490B68486B0A68496B02F038
:1007A0007F02C1F3036101320431B2EB410F10D378
:1007B00003F07F03C0F30360053B0130A3EB40036C
:1007C000DBB2054A106800F07F000130C01AC0B2E9
:1007D00070470023F5E700BF00400240624A2DE960
:1007E000F0411468136843F0A04304F08074136070
:1007F0001368DD01FCD51168DFF874C15B4F5A4EF8
:10080000002321F00051116093621268194603EB36
:100810000C02DD191201AD00D160916051601160D0
:1008200029603268013302F07F02DBB20132934269
:10083000EDD3B1643161336B3363336800284BD13E
:10084000DFF82C81484E494F054619E0336803F024
:100850007F030133B0EB930F34BF4FF080634FF051
:100860008C631360736BC3F300439B070B603368A7
:10087000013503F07F03EDB201339D42284620D2BB
:10088000336803F07F030133E91905EB0802B0EB8D
:10089000530F4FEA81014FEA0212D7D34FF00063A2
:1008A000136033689A0003D5FFF774FFA842DED8BF
:1008B00001231F2D03FA05F34CD8B26A1343B36228
:1008C000D5E73CB9284A136823F0805313601368B6
:1008D000DB01FCD4BDE8F08143F0005333603568A0
:1008E00015F000553ED0FFF755FF336803F07F0346
:1008F000013383420546E4D91D4FDFF86C804FF089
:1009000000660DE0D8F828201343C8F82830D8F83E
:100910000030013503F07F03EDB201339D42D0D2A8
:10092000EB191B011E60D8F80030990003D5FFF7C2
:1009300031FF8542EBD301231F2D03FA05F3E1D9E3
:10094000D8F824200123A5F120018B401343C8F8D7
:100950002430DCE7726AA5F1200101238B401343A8
:10096000736284E73368C7E70040024020920010BA
:1009700008240004624A2DE9F0411468136843F02A
:10098000A04304F0807413601368DD01FCD5116886
:10099000DFF874C15B4F5A4E002321F00051116003
:1009A00093621268194603EB0C02DD191201AD00C7
:1009B000D16091605160116029603268013302F0AA
:1009C0007F02DBB201329342EDD3B1643161336B0C
:1009D0003363336800284BD1DFF82C81484E494FF0
:1009E000054619E0336803F07F030133B0EB930F42
:1009F00034BF4FF080634FF08C631360736BC3F3AD
:100A000000439B070B603368013503F07F03EDB2B1
:100A100001339D42284620D2336803F07F0301331F
:100A2000E91905EB0802B0EB530F4FEA81014FEAD9
:100A30000212D7D34FF00063136033689A0003D5D6
:100A4000FFF784FEA842DED801231F2D03FA05F329
:100A50004CD8B26A1343B362D5E73CB9284A13684D
:100A600023F0805313601368DB01FCD4BDE8F081F0
:100A700043F000533360356815F000553ED0FFF762
:100A800065FE336803F07F03013383420546E4D9F2
:100A90001D4FDFF86C804FF000660DE0D8F828207D
:100AA0001343C8F82830D8F80030013503F07F032D
:100AB000EDB201339D42D0D2EB191B011E60D8F874
:100AC0000030990003D5FFF741FE8542EBD30123A7
:100AD0001F2D03FA05F3E1D9D8F824200123A5F14D
:100AE00020018B401343C8F82430DCE7726AA5F17B
:100AF000200101238B401343736284E73368C7E707
:100B000000400A402092021008A4000410B52248B8
:100B100082B0062109F026FB204804F07BFE30B1AC
:100B200004460BF06DFA0146204609F01BFB1C48F9
:100B300008F03AF9194804F06BFE1A4A03460C21F2
:100B40001948CDE9002309F00DFB1549684608F066
:100B50006FF8134808F028F9104804F067FE1721D1
:100B60000446124809F0FEFA21460D4808F014F92F
:100B700004210F4809F0F6FA094808F015F9352163
:100B80000C4809F0EFFA0649684608F051F80448A5
:100B900008F00AF902B010BDB4160100CC76FF1FB0
:100BA000640EFF1FEC1F0100BC160100CC160100F3
:100BB000E4160100EC16010038B5002300F50055DD
:100BC00043608360C3600361414A5E210123C5F82D
:100BD0000C1985F8153913783E4943F080031370DA
:100BE0000A6B3D4B42F010020A635A6801F5A041BE
:100BF0004FF4007022F400525A60086648661A6882
:100C00003649374822F000421A601A68C1F8B80124
:100C100042F0A0421A601A68D201FCD559682E4AE7
:100C200041F008015960196841F08041196013686A
:100C3000DC02FCD41368284943F0007313600B688E
:100C40009801FCD4244C2368DA01FCD5236843F4D2
:100C500000332360236843F480332360236843F424
:100C600080532360236843F400532360236843F4D4
:100C700080032360236843F400232360236823F464
:100C800008432360636B43F4E0236363236843F406
:100C900000132360236843F0806323600020FFF784
:100CA00069FE23680C4A23F0805323601368DB013C
:100CB000FCD4D5F80C29530903F138234033012122
:100CC0009B0002F01F0201FA02F21A6038BD00BF59
:100CD000005006400080044000400A400002FF1F10
:100CE0007104000038B500F50055002361494360E8
:100CF0004B228360C3600361C5F80C2985F8153960
:100D00000A785D4842F080020A70C26BA1F5822128
:100D100042F01002C2634A68584822F400524A6006
:100D2000574A5849C2F86C110278002A40F0848072
:100D3000554B9A6CB2F5007F04BF00229A64534B66
:100D40004FF400721A63524B1A78002A00F0858023
:100D50004E4A516B00297FD000211970536BB3F5B7
:100D6000007F494B08BF51634FF40072DA64494A6F
:100D7000136823F000431360136843F0A04313602B
:100D80001368DC01FCD55368424943F00803536003
:100D9000136843F0804313600B68D802FCD40B68DF
:100DA0003C4A43F000730B6013689901FCD4394C42
:100DB0002368DA01FCD5236843F4003323602368F9
:100DC00043F480332360236843F480532360236813
:100DD00043F400532360236843F4800323602368B3
:100DE00043F400232360236823F408432360636BE8
:100DF00043F4E0236363236843F400132360236810
:100E000043F0806323600020FFF7E8FC2368214A59
:100E100023F0805323601368DB01FCD4D5F80C2940
:100E2000530903F13823403301219B0002F01F02D4
:100E300001FA02F21A6038BD144A116B09B9017047
:100E400076E7116B0370B1F5007F08BF13630E4B9B
:100E50004FF400729A6476E719700B4BDA6CB2F5B6
:100E6000007F04BF0022DA64084B4FF400725A631B
:100E70007DE700BF00500640008004403908FF1F96
:100E80000002FF1F5D04000000A004400090044029
:100E90003808FF1F0040024000F5805CBCF8D43CDD
:100EA0009BB20BB9184670472DE9F04100F5005789
:100EB0001646D7F80C29530903F1382360339B00F9
:100EC0000C4602F01F02012101FA02F21A60BCF87E
:100ED000D43C9BB22BB1BCF8D43C013B9BB2ACF8E8
:100EE000D43CBCF8D03C03F00F030CEB8303D3F8E5
:100EF000D85CBCF8D03C013303F01F03ACF8D03C05
:100F0000BCF89C3DA5639BB22BB1BCF89C3D013B5A
:100F10009BB2ACF89C3DBCF8983D03F00F0300EB8E
:100F200043000CEB430341F69E51B3F89E2DBCF8F1
:100F3000983D30F80180013303F01F03ACF8983D71
:100F4000614BA287614A2B40934298FA98F87CD073
:100F5000002B74D05E4A934200F0A9805D4A934210
:100F600000F0AB80C5F3C033A377C5F38033E377DC
:100F7000C5F3403384F82030C5F3003384F82130C2
:100F8000C5F3C02384F82230C5F3802384F82330CE
:100F9000C5F3402384F8243015F0300FC5F3002347
:100FA00084F8253004F1260516D14B490D22284638
:100FB00007F09CFFA4F83480BEB9D7F80C29530978
:100FC00003F13823403301209B0002F01F0200FA96
:100FD00002F21A60BDE8F08140490D2228460AF06D
:100FE000CDFEA4F83480002EE7D00F213C4809F054
:100FF000B9F820460BF004F80146204609F0B2F893
:10100000A37F002B4ED1E37F002B46D194F82030F4
:10101000002B3DD194F82130ABBB94F822306BBB50
:1010200094F823302BBB94F82530DBB994F82430A6
:101030008BB92C492C482A4607F0CEFEBDE72B4938
:101040001D2220460AF09AFE8CE729491D222046DF
:101050000AF094FE86E794F835202649224807F0E6
:10106000BBFEE6E794F8342023491F4807F0B4FE9E
:10107000DCE70921214809F075F8D4E70921204867
:1010800009F070F8CCE709211E4809F06BF8C4E7B5
:1010900009211D4809F066F8BCE70A211B4809F040
:1010A00061F8B3E70A211A4809F05CF8ABE719497F
:1010B0001D2220460AF062FE54E717491D222046F1
:1010C0000AF05CFE4EE700BFC80004008000040088
:1010D00040000400080004006417010074170100B8
:1010E000F4170100E4170100640EFF1F2C17010024
:1010F00024170100D4170100C4170100B81701001C
:10110000AC170100A0170100941701008817010017
:101110007C17010048170100581701002DE9F04F16
:10112000DFF82CE1DFF82C81DFF82C913F4C404EAA
:10113000404DDFF828B1DFF810A13F4FBEE80F00A7
:1011400095B00DF1100CACE80F00BEE80F00ACE854
:101150000F00BEE80F00ACE80F009EE80F008CE81F
:101160000F0058F8041BC9F8001000222846FFF7AA
:1011700029FA2021584608F0F5FF00230A22D9F861
:101180000010504607F036FE05212C4808F0EAFF13
:10119000504607F009FE23680193019B1946316010
:1011A00006E03B683BBBFFF777FE002838D131688B
:1011B00023680393039B5B1AB3F5C87F4FF00102CA
:1011C00004A92846EDD31E4B9845CAD121211D48BC
:1011D00008F0C8FF00230A22D9F800101A4807F0C7
:1011E00009FE0521154808F0BDFF174807F0DCFD92
:1011F00015B0BDE8F08F2621144808F0B3FF002396
:101200000A22D9F80010104807F0F4FD05210B4818
:1012100008F0A8FF0C4807F0C7FD15B0BDE8F08F37
:10122000236802930299A1F5C871B8E7E47AFF1F19
:101230000476FF1FF815FF1F4068FF1F28180100E4
:10124000540CFF1F58180100640EFF1F30180100D6
:10125000301C01003C0CFF1F103FFF1F0418010051
:1012600000F5805CBCF8D43C9BB20BB918467047C3
:101270002DE9F04100F500571646D7F80C2953091F
:1012800003F1382360339B000C4602F01F0201215A
:1012900001FA02F21A60BCF8D43C9BB22BB1BCF844
:1012A000D43C013B9BB2ACF8D43CBCF8D03C03F03E
:1012B0000F030CEB8303D3F8D85CBCF8D03C0133AC
:1012C00003F01F03ACF8D03CBCF89C3DA5639BB277
:1012D0002BB1BCF89C3D013B9BB2ACF89C3DBCF8EB
:1012E000983D03F00F0300EB43000CEB430341F682
:1012F0009E51B3F89E2DBCF8983D30F80180013323
:1013000003F01F03ACF8983D614BA287614A2B4064
:10131000934298FA98F87CD0002B74D05E4A93429E
:1013200000F0A9805D4A934200F0AB80C5F3C03362
:10133000A377C5F38033E377C5F3403384F82030D7
:10134000C5F3003384F82130C5F3C02384F822307C
:10135000C5F3802384F82330C5F3402384F8243078
:1013600015F0300FC5F3002384F8253004F126056D
:1013700016D14B490D22284607F0B8FDA4F8348059
:10138000BEB9D7F80C29530903F1382340330120A3
:101390009B0002F01F0200FA02F21A60BDE8F08121
:1013A00040490D2228460AF0E9FCA4F83480002EBA
:1013B000E7D00F213C4808F0D5FE20460AF020FE79
:1013C0000146204608F0CEFEA37F002B4ED1E37FDE
:1013D000002B46D194F82030002B3DD194F82130D9
:1013E000ABBB94F822306BBB94F823302BBB94F842
:1013F0002530DBB994F824308BB92C492C482A4687
:1014000007F0EAFCBDE72B491D2220460AF0B6FC96
:101410008CE729491D2220460AF0B0FC86E794F8A3
:1014200035202649224807F0D7FCE6E794F8342017
:1014300023491F4807F0D0FCDCE70921214808F0C8
:1014400091FED4E70921204808F08CFECCE7092161
:101450001E4808F087FEC4E709211D4808F082FEF7
:10146000BCE70A211B4808F07DFEB3E70A211A48B1
:1014700008F078FEABE719491D2220460AF07EFCF1
:1014800054E717491D2220460AF078FC4EE700BFBA
:10149000C8000400800004004000040008000400AC
:1014A0006417010074170100F4170100E41701002C
:1014B000640EFF1F2C17010024170100D417010030
:1014C000C4170100B8170100AC170100A0170100F4
:1014D00094170100881701007C17010048170100CC
:1014E000581701002DE9F04FDFF82CE1DFF82C81CF
:1014F000DFF82C913F4C404E404DDFF828B1DFF82B
:1015000010A13F4FBEE80F0095B00DF1100CACE8F4
:101510000F00BEE80F00ACE80F00BEE80F00ACE81B
:101520000F009EE80F008CE80F0058F8041BC9F864
:10153000001000222846FEF7A5FF2021584608F09B
:1015400011FE00230A22D9F80010504607F052FC81
:1015500005212C4808F006FE504607F025FC2368BC
:101560000193019B1946316006E03B683BBBFFF7E6
:1015700077FE002838D1316823680393039B5B1AF8
:10158000B3F5C87F4FF0010204A92846EDD31E4BE6
:101590009845CAD121211D4808F0E4FD00230A2204
:1015A000D9F800101A4807F025FC0521154808F065
:1015B000D9FD174807F0F8FB15B0BDE8F08F2621DC
:1015C000144808F0CFFD00230A22D9F80010104873
:1015D00007F010FC05210B4808F0C4FD0C4807F08B
:1015E000E3FB15B0BDE8F08F236802930299A1F5E3
:1015F000C871B8E7E47AFF1F0476FF1F143FFF1F8E
:101600004468FF1F28180100540CFF1FC818010070
:10161000640EFF1FA0180100301C01003C0CFF1FCE
:101620002C68FF1F7C18010010B50B78632B044653
:1016300082B0104613D003F51C6304EB83035B6890
:1016400013B101929847019804F50054D4F8043876
:101650001BB102B0BDE81040184702B010BD04F540
:101660000054D4F80437002BF0D001929847019829
:10167000ECE700BF1F2910B41B4823D8046B0123DB
:101680008B4023430363194BD0790B441B014FF06C
:1016900000611960F8B11068117A20F06040090506
:1016A000586041F4C001D0685DF8044B00BA9860FE
:1016B000106900BAD860D27A41EA024242F0406230
:1016C0001A607047C46AA1F1200C012303FA0CF3DD
:1016D0002343C362D7E714680548117A00EA8440BF
:1016E00058600905DFE700BF0040024008240004FD
:1016F0000000FC1F2DE9F04300F500578FB097F86C
:101700000037044613B9012387F80037238B9BB2B7
:10171000002B4FD1D7F80C29530903F1382360333C
:101720009B0002F01F02012101FA02F204F580562B
:101730001A60B6F81E3B9BB223B3B6F81A1B1A23E5
:1017400001F00F0103FB014101F5D95112311822BB
:1017500008A808AD07F0CAFB0FCD0DF1080CACE8E6
:101760000F0095E803008CE803009DF91C104B1C4A
:101770004AD0534B0B441B011B68C3F30363082B74
:1017800000F08180D7F80C29530903F13823403346
:101790009B00012102F01F0201FA02F21A60238B62
:1017A000B6F81E0B9BB280B2002140EA03300FB0A6
:1017B000BDE8F083A18A1A23C9B203FB01411822B4
:1017C00001F58E7108A807F091FBA38A0133C3F3DA
:1017D0000803A382238B9BB21BB1238B013B9BB2DB
:1017E000238308AD0FCD02AE0FC695E8030086E84F
:1017F000030002AA9DF81C308DF807300DF1070197
:101800002046FFF711FF85E7DFF8B880D8F80050D1
:1018100015F0005550D0FEF7BDFFD8F8003003F0AA
:101820007F03013383420546ACD9DFF89490DFF89B
:10183000948008E0D8F80030013503F07F03EDB262
:1018400001339D429ED205EB09031B011B68C3F3C4
:101850000363082BEED102AA29462046FFF70AFFB0
:10186000B6F81A3B013303F01F03A6F81A3BB6F88B
:101870001E3B9BB2002BDDD0B6F81E3B013B9BB25A
:10188000A6F81E3BD6E702AAC9B22046FFF7F2FE31
:10189000B6F81A3B013303F01F03A6F81A3BB6F85B
:1018A0001E3B9BB2002B3FF46DAFB6F81E3B013BD5
:1018B0009BB2A6F81E3B65E7D8F80030B5E700BF3D
:1018C000082400040040024010B50B78632B044646
:1018D00082B0104613D003F51C6304EB83035B68EE
:1018E00013B101929847019804F50054D4F80438D4
:1018F0001BB102B0BDE81040184702B010BD04F59E
:101900000054D4F80437002BF0D001929847019886
:10191000ECE700BF1F2910B41B4823D8046B012338
:101920008B4023430363194BD0790B441B014FF0C9
:1019300000611960F8B11068117A20F06040090563
:10194000586041F4C001D0685DF8044B00BA98605B
:10195000106900BAD860D27A41EA024242F040628D
:101960001A607047C46AA1F1200C012303FA0CF33A
:101970002343C362D7E714680548117A00EA84401C
:1019800058600905DFE700BF00400A4008A40004D2
:101990000000FC1F2DE9F04300F500578FB097F8C9
:1019A0000037044613B9012387F80037238B9BB215
:1019B000002B4FD1D7F80C29530903F1382360339A
:1019C0009B0002F01F02012101FA02F204F5805689
:1019D0001A60B6F81E3B9BB223B3B6F81A1B1A2343
:1019E00001F00F0103FB014101F5D9511231182219
:1019F00008A808AD07F07AFA0FCD0DF1080CACE895
:101A00000F0095E803008CE803009DF91C104B1CA7
:101A10004AD0534B0B441B011B68C3F30363082BD1
:101A200000F08180D7F80C29530903F138234033A3
:101A30009B00012102F01F0201FA02F21A60238BBF
:101A4000B6F81E0B9BB280B2002140EA03300FB003
:101A5000BDE8F083A18A1A23C9B203FB0141182211
:101A600001F58E7108A807F041FAA38A0133C3F388
:101A70000803A382238B9BB21BB1238B013B9BB238
:101A8000238308AD0FCD02AE0FC695E8030086E8AC
:101A9000030002AA9DF81C308DF807300DF10701F4
:101AA0002046FFF711FF85E7DFF8B880D8F800502F
:101AB00015F0005550D0FEF749FED8F8003003F07D
:101AC0007F03013383420546ACD9DFF89490DFF8F9
:101AD000948008E0D8F80030013503F07F03EDB2C0
:101AE00001339D429ED205EB09031B011B68C3F322
:101AF0000363082BEED102AA29462046FFF70AFF0E
:101B0000B6F81A3B013303F01F03A6F81A3BB6F8E8
:101B10001E3B9BB2002BDDD0B6F81E3B013B9BB2B7
:101B2000A6F81E3BD6E702AAC9B22046FFF7F2FE8E
:101B3000B6F81A3B013303F01F03A6F81A3BB6F8B8
:101B40001E3B9BB2002B3FF46DAFB6F81E3B013B32
:101B50009BB2A6F81E3B65E7D8F80030B5E700BF9A
:101B600008A4000400400A4000F58053D3F8003E6A
:101B7000DB006BD5384B2DE9F04F5F6BC7F3036784
:101B8000FF00002241F6146B083741F6046941F664
:101B9000086A07E01D686D0F052D34D00132D3B2FD
:101BA0009F4255D902EB420E00EBCE0404F5F053F0
:101BB0001D686D0F012D0ED01D686D0F022DE9D12E
:101BC00054F809308B42E9D854F80A308B42E5D3F7
:101BD0000120BDE8F08F1C6814F4607FDED04FEA6E
:101BE0004E0E002404E01D68C5F3C215AC42D5D2E8
:101BF00001340EEB040505F5F065E4B250F825500C
:101C00008D42F0D1E4E71D6815F4607FC6D05C44D6
:101C10004FEA4E0E4FF0010C05E01D68C5F3C215EA
:101C20000135AC45BAD20EEB0C0505F5F06526681A
:101C300050F82550D4F800800E4005EA08050CF154
:101C4000010CAE425FFA8CFCE7D1C1E7012070477E
:101C50000020BDE8F08F00BF0040024001EB4101D1
:101C600070B500EBC10505F5045EDEF80030DB0061
:101C700028D5DEF800305B0F012B0BD0DEF80030EA
:101C80005B0F022B42D0DEF800305B0F052B1BD020
:101C9000002070BDDEF8004014F4607FF8D000230F
:101CA0004D0005E0DEF80010C1F3C21C6345EFD221
:101CB000013305EB030C0CF5046CDBB250F82C403F
:101CC0009442EFD1012070BDDEF8004014F4607F33
:101CD000DED005F5045514354900012307E0DEF890
:101CE0000040C4F3C21C0CF1010C6345D0D22C6837
:101CF00004EA020CCC1804F50464013350F82440C3
:101D00002E683440A445DBB2E9D1DBE742F204138C
:101D1000EB589342BCD842F20813E858904234BFC3
:101D20000020012070BD00BF83889BB20F2B03D819
:101D3000838801339BB283804288B0F802C0038855
:101D400002F00F029BB202321FFA8CFC83F01003E8
:101D50009C4540F8221004D10388013303F01F038F
:101D600003804388013303F01F034380704700BFA3
:101D700083889BB20F2B03D8838801339BB2838067
:101D80004288B0F802C0038802F00F029BB200EB59
:101D900042021FFA8CFC83F010039C45D18004D1D1
:101DA0000388013303F01F0303804388013303F0EA
:101DB0001F034380704700BF00F58053D3F8003EF7
:101DC000DB006BD5384B2DE9F04F5F6BC7F3036732
:101DD000FF00002241F6146B083741F6046941F612
:101DE000086A07E01D686D0F052D34D00132D3B2AB
:101DF0009F4255D902EB420E00EBCE0404F5F0539E
:101E00001D686D0F012D0ED01D686D0F022DE9D1DB
:101E100054F809308B42E9D854F80A308B42E5D3A4
:101E20000120BDE8F08F1C6814F4607FDED04FEA1B
:101E30004E0E002404E01D68C5F3C215AC42D5D295
:101E400001340EEB040505F5F065E4B250F82550B9
:101E50008D42F0D1E4E71D6815F4607FC6D05C4484
:101E60004FEA4E0E4FF0010C05E01D68C5F3C21598
:101E70000135AC45BAD20EEB0C0505F5F0652668C8
:101E800050F82550D4F800800E4005EA08050CF102
:101E9000010CAE425FFA8CFCE7D1C1E7012070472C
:101EA0000020BDE8F08F00BF00400A4001EB410177
:101EB00070B500EBC10505F5045EDEF80030DB000F
:101EC00028D5DEF800305B0F012B0BD0DEF8003098
:101ED0005B0F022B42D0DEF800305B0F052B1BD0CE
:101EE000002070BDDEF8004014F4607FF8D00023BD
:101EF0004D0005E0DEF80010C1F3C21C6345EFD2CF
:101F0000013305EB030C0CF5046CDBB250F82C40EC
:101F10009442EFD1012070BDDEF8004014F4607FE0
:101F2000DED005F5045514354900012307E0DEF83D
:101F30000040C4F3C21C0CF1010C6345D0D22C68E4
:101F400004EA020CCC1804F50464013350F8244070
:101F50002E683440A445DBB2E9D1DBE742F204133A
:101F6000EB589342BCD842F20813E858904234BF71
:101F70000020012070BD00BF43884FF01A0CDBB277
:101F80000CFB030310B50446002083F806016388A8
:101F9000DBB20CFB034383F807216088C0B20CFB63
:101FA000004000F5847009F01BFE628823889BB214
:101FB00092B283F480739A4204D123880133C3F32D
:101FC0000803238063880133C3F308036380A38875
:101FD0009BB2FF2B03D8A38801339BB2A38010BD13
:101FE0002DE9F04F8C460F460646054600F11008D5
:101FF000BCE80F008DB06C460FC49CE8030084E879
:102000000300DFF894A04FF0010955F8044F5CB1CC
:102010009DF91420A36809FA02F1194220D023681F
:10202000D3F800B0D34516D14545EED106F500539F
:1020300093F8003723B3182239460DEB020006F05F
:1020400055FF18220DEB020106F11400FFF794FF73
:102050000DB0BDE8F08F9DF8153069462046D84791
:10206000237C002BE0D02368D3F800B09DF8153016
:10207000D345D9D020464FF0FF326946D847D3E741
:102080003B7D8DF818303A4606A93046FFF7CCFA6A
:102090000DB0BDE8F08F00BF5904000000F50053FB
:1020A00093F80137002B00F0DB802DE9F04F0F464D
:1020B00005460E460FCF89B002AC0FC497E8030067
:1020C00084E80300DFF850C2DCF800309B0052D5F2
:1020D000DCF83430C3F3036A00244FEACA0A0AF179
:1020E000080A22464FF063090CE05B0F022B3B68A5
:1020F00000F09A805B0F052B00F0DD800134E2B226
:10210000924538D996F91430632B34D004EB440847
:1021100005EBC80B0BF5F0573B6813F0604FEDD0A3
:102120003B685B0F012B3B68DFD1F279C3F30043BF
:102130009A42E3D13B6813F4607FDFD04FEA480B4B
:10214000002306E03A685FFA88F3C2F3C2129342B2
:10215000D4D203F101080BEB080303F5F063029AF4
:1021600055F823309A42EDD102A928468DF81C90EB
:10217000FFF736FFE6E7684F00238DF80E303C6826
:1021800014F000543FD0FEF705FB3B6803F07F03DB
:1021900001338342044633D9DFF87C9142F20417BD
:1021A00042F2081896F91430A34220D004EB4401FF
:1021B00005EBC10202F5045ADAF8003013F0604F63
:1021C00015D0DAF80030F079C3F3C06398420ED12D
:1021D000DAF800305B0F012BDAF8003041D05B0FEA
:1021E000022B12D0DAF800305B0F052B5BD0D9F848
:1021F0000030013403F07F03E4B201339C42D1D3B9
:1022000009B0BDE8F08F3B68C6E7D159029B8B420D
:10221000EDD352F808209342E9D802A928468DF858
:102220001C40FFF7DDFEE2E7F279C3F300439A4278
:102230007FF464AF41F604635BF80320029B934292
:10224000FFF45CAF41F608625BF8022093423FF670
:1022500055AF02A928468DF81C90FFF7C1FE4DE747
:10226000704713F4607FC2D04A00002307E0DAF819
:1022700000105FFA8BF3C1F3C2118B42B7D203F1A6
:10228000010B02EB0B0303F50463029955F82330AD
:102290009942ECD102A9284600928DF81C40FFF724
:1022A0009FFE009AE3E7029A21462846FFF7D6FCF4
:1022B00000289CD0B1E73B6813F4607F3FF41EAF69
:1022C0000BF5F053143301270AE00BF5F0510137F9
:1022D0000968C1F3C211FFB201318F42BFF40EAFE2
:1022E00007EB480101F5F061186855F821E0029903
:1022F000D3F800C008400EEA0C018842E5D102A9DB
:10230000284601938DF80E2000928DF81C90FFF75F
:1023100067FEDDE90023D8E7004002402DE9F04FD9
:10232000B94DBA4F81460FCD97B004AC0FC495E8B4
:10233000030084E80300B96A386B3B68019013F42A
:1023400000434FF000068B4603D13A68940000F139
:10235000EB80AE4D019B2C6843F00103B3FA83F38D
:10236000C3F1200314F000545FFA83FA00F04F82A7
:10237000FEF710FA2B6803F07F0301338342044613
:1023800040F29E80824540F29B80671CDFF87C8291
:10239000FDB216E0062900F0AD80042900F03E8170
:1023A000082900F0D781D8F8003003F07F0301330B
:1023B000AB42FCB240F28480A24505F101057FD911
:1023C000671CC4F12002A4F1200306FA02F22BFAE2
:1023D00004F126FA03F311431943C907E3D5019920
:1023E000E14011431943C907DDD5894BE3181B01AF
:1023F0001A68C2F303610229CCD102F400115868B3
:10240000002914BF4FF0010C4FF0000C20F0604089
:102410008DF817C07FD1800C0490ADF81420C2F362
:1024200003428DF81B2009F500528DF8244092F8E4
:1024300015298DF825209A688DF81F209A68120AB0
:102440008DF81E209A68120C8DF81D209A68120EC5
:102450008DF81C20DA688DF82320DA68120A8DF8CE
:102460002220DA68120C8DF82120DA6800294FEA60
:1024700012628DF8202014BF4FF08C624FF0806202
:102480001A60D8F80830D8F830200123A34013434D
:10249000C8F83030049A21464846FFF7DFFB002891
:1024A00040F0538104A94846FFF7F8FD04A8AFF3B4
:1024B000008004A8AFF3008004A8AFF3008072E7A7
:1024C000524E544D346A2B6884EA0302524B134037
:1024D0003BB109F58053B3F8D43C9BB20F2B40F2CB
:1024E00098814A4A136A23431362BFF34F8F17B090
:1024F000BDE8F08F02F400115868002914BF4FF0B6
:10250000010C4FF0000C20F060408DF817C005D191
:10251000800C049004E0049001217EE704900121E6
:1025200001208DF8190078E78A067FF512AF85063D
:102530007FF50FAFD7F88020ADF81420C2F3034128
:102540008DF81B10D7F88410304C02F40010B04204
:1025500021F06041C2F300508DF818004FEAD252CA
:1025600012BF01203046890C8DF817008DF8162017
:10257000049108A80022D4F88810D1400832202AFB
:1025800000F8011DF7D1214809A9D0F88C20DA40C4
:102590000833202B01F8012DF7D109F5005393F8EA
:1025A00015398DF8253063238DF824308368036B4B
:1025B00043F020030363019B5C0603D5036B43F0E8
:1025C00040030363019B180604D5104A136B43F0C4
:1025D0008003136304A94846FFF760FD04A8AFF326
:1025E000008004A8AFF3008004A8AFF30080049932
:1025F0004846FFF7B9FA00283FF4ABAE04A94846B5
:10260000FFF7EEFCA5E600BF701C01000040024091
:1026100008240004EC15FF1FBFFF070002F400119F
:1026200000295968ADF81420C2F303428DF81B202D
:1026300009F5005214BF012000208DF8170092F810
:1026400015098DF824408DF8250098688DF81F0035
:1026500098684FEA10208DF81E0098684FEA1040E5
:102660008DF81D0098684FEA10608DF81C00D8683E
:102670008DF82300D8684FEA10208DF82200D86822
:1026800021F0604108BF890C000C04918DF82100F5
:1026900004F60221D86859F82110000E8DF82000A8
:1026A00029B104A8039202938847039A029BD2F8A7
:1026B00008291AB104A802939047029B09F5805299
:1026C0000292B2F81E2B92B2002A00F0B180029B57
:1026D000B3F81A1B1A2301F00F0103FB019101F556
:1026E000D9511231182210A806F000FC0AAB0DF1E6
:1026F000400C9E460393BCE80F00AEE80F009CE838
:1027000003008EE803009DF93C305A1C00F09B80CA
:102710009C427FF448AE039AE1B24846FEF7AAFF16
:10272000029AB2F81A3B013303F01F03A2F81A3BD6
:10273000B2F81E3B9BB2002B3FF435AEB2F81E3B05
:10274000013B9BB2A2F81E3B2DE604A94846FFF7C9
:1027500047FCA7E602F4001100295968ADF81420DF
:10276000C2F303428DF81B2009F5005214BF01206B
:1027700000208DF8170092F815098DF824408DF887
:10278000250098688DF81F0098684FEA10208DF892
:102790001E0098684FEA10408DF81D0098684FEAB7
:1027A00010608DF81C00D8688DF82300D8684FEAB7
:1027B00010208DF82200D86821F0604108BF890CF4
:1027C000000C04918DF8210004F60221DB6859F811
:1027D00021101B0E8DF8203019B104A802928847F1
:1027E000029AD2F808390BB104A8984709F580532A
:1027F0000293B3F81E3B9BB2002B7FF468AFD8F86E
:1028000030200123A3401343C8F83030CBE52B68B8
:10281000BBE509F5E65021461030FFF785FAF1696E
:1028200009F5EC5089B21830FFF7A2FA2C6058E68F
:10283000D8F830100122A2400A43C8F830204FF0E7
:1028400000621A60AFE5039A214666E72DE9F04F72
:102850008C460F460646054600F11008BCE80F00FE
:102860008DB06C460FC49CE8030084E80300DFF8D9
:1028700094A04FF0010955F8044F5CB19DF9142064
:10288000A36809FA02F1194220D02368D3F800B0F6
:10289000D34516D14545EED106F5005393F80037E0
:1028A00023B3182239460DEB020006F01FFB182255
:1028B0000DEB020106F11400FFF75EFB0DB0BDE861
:1028C000F08F9DF8153069462046D847237C002BB1
:1028D000E0D02368D3F800B09DF81530D345D9D0A7
:1028E00020464FF0FF326946D847D3E73B7D8DF84D
:1028F00018303A4606A93046FEF7E6FF0DB0BDE8AF
:10290000F08F00BF5904000000F5005393F8013721
:10291000002B00F0DB802DE9F04F0F4605460E46F8
:102920000FCF89B002AC0FC497E8030084E803001E
:10293000DFF850C2DCF800309B0052D5DCF83430B0
:10294000C3F3036A00244FEACA0A0AF1080A2246BE
:102950004FF063090CE05B0F022B3B6800F09A809C
:102960005B0F052B00F0DD800134E2B2924538D9CF
:1029700096F91430632B34D004EB440805EBC80BF4
:102980000BF5F0573B6813F0604FEDD03B685B0FE1
:10299000012B3B68DFD1F279C3F300439A42E3D1C4
:1029A0003B6813F4607FDFD04FEA480B002306E05A
:1029B0003A685FFA88F3C2F3C2129342D4D203F1A9
:1029C00001080BEB080303F5F063029A55F8233076
:1029D0009A42EDD102A928468DF81C90FFF736FFE8
:1029E000E6E7684F00238DF80E303C6814F0005481
:1029F0003FD0FDF7ABFE3B6803F07F03013383421A
:102A0000044633D9DFF87C9142F2041742F20818E9
:102A100096F91430A34220D004EB440105EBC10227
:102A200002F5045ADAF8003013F0604F15D0DAF8E6
:102A30000030F079C3F3C06398420ED1DAF8003069
:102A40005B0F012BDAF8003041D05B0F022B12D064
:102A5000DAF800305B0F052B5BD0D9F80030013479
:102A600003F07F03E4B201339C42D1D309B0BDE847
:102A7000F08F3B68C6E7D159029B8B42EDD352F8E9
:102A800008209342E9D802A928468DF81C40FFF798
:102A9000DDFEE2E7F279C3F300439A427FF464AFCC
:102AA00041F604635BF80320029B9342FFF45CAFA2
:102AB00041F608625BF8022093423FF655AF02A947
:102AC00028468DF81C90FFF7C1FE4DE7704713F4C0
:102AD000607FC2D04A00002307E0DAF800105FFAF6
:102AE0008BF3C1F3C2118B42B7D203F1010B02EB9E
:102AF0000B0303F50463029955F823309942ECD196
:102B000002A9284600928DF81C40FFF79FFE009A0C
:102B1000E3E7029A21462846FFF7C8F900289CD02F
:102B2000B1E73B6813F4607F3FF41EAF0BF5F05341
:102B3000143301270AE00BF5F05101370968C1F39E
:102B4000C211FFB201318F42BFF40EAF07EB480153
:102B500001F5F061186855F821E00299D3F800C03A
:102B600008400EEA0C018842E5D102A928460193EB
:102B70008DF80E2000928DF81C90FFF767FEDDE9BE
:102B80000023D8E700400A402DE9F04FB94DBA4F75
:102B900081460FCD97B004AC0FC495E8030084E8DC
:102BA0000300B96A386B3B68019013F400434FF09F
:102BB00000068B4603D13A68940000F1EB80AE4DDD
:102BC000019B2C6843F00103B3FA83F3C3F12003A4
:102BD00014F000545FFA83FA00F04F82FDF7B6FD5F
:102BE0002B6803F07F0301338342044640F29E804A
:102BF000824540F29B80671CDFF87C82FDB216E0C4
:102C0000062900F0AD80042900F03E81082900F07B
:102C1000D781D8F8003003F07F030133AB42FCB218
:102C200040F28480A24505F101057FD9671CC4F1FB
:102C30002002A4F1200306FA02F22BFA04F126FA8C
:102C400003F311431943C907E3D50199E140114347
:102C50001943C907DDD5894BE3181B011A68C2F374
:102C600003610229CCD102F400115868002914BF75
:102C70004FF0010C4FF0000C20F060408DF817C0B1
:102C80007FD1800C0490ADF81420C2F303428DF87C
:102C90001B2009F500528DF8244092F815298DF873
:102CA00025209A688DF81F209A68120A8DF81E2038
:102CB0009A68120C8DF81D209A68120E8DF81C204F
:102CC000DA688DF82320DA68120A8DF82220DA6893
:102CD000120C8DF82120DA6800294FEA12628DF873
:102CE000202014BF4FF08C624FF080621A60D8F839
:102CF0000830D8F830200123A3401343C8F83030FF
:102D0000049A21464846FFF7D1F8002840F0538145
:102D100004A94846FFF7F8FD04A8AFF3008004A813
:102D2000AFF3008004A8AFF3008072E7524E544D19
:102D3000346A2B6884EA0302524B13403BB109F515
:102D40008053B3F8D43C9BB20F2B40F298814A4A8F
:102D5000136A23431362BFF34F8F17B0BDE8F08FA0
:102D600002F400115868002914BF4FF0010C4FF015
:102D7000000C20F060408DF817C005D1800C049045
:102D800004E0049001217EE70490012101208DF8E8
:102D9000190078E78A067FF512AF85067FF50FAF39
:102DA000D7F88020ADF81420C2F303418DF81B1032
:102DB000D7F88410304C02F40010B04221F060418A
:102DC000C2F300508DF818004FEAD25212BF012012
:102DD0003046890C8DF817008DF81620049108A84C
:102DE0000022D4F88810D1400832202A00F8011DB2
:102DF000F7D1214809A9D0F88C20DA400833202BDC
:102E000001F8012DF7D109F5005393F815398DF824
:102E1000253063238DF824308368036B43F020034F
:102E20000363019B5C0603D5036B43F0400303631C
:102E3000019B180604D5104A136B43F080031363FB
:102E400004A94846FFF760FD04A8AFF3008004A87A
:102E5000AFF3008004A8AFF3008004994846FEF762
:102E6000ABFF00283FF4ABAE04A94846FFF7EEFCE9
:102E7000A5E600BF701C010000400A4008A4000441
:102E8000E815FF1FBFFF070002F400110029596871
:102E9000ADF81420C2F303428DF81B2009F500524F
:102EA00014BF012000208DF8170092F815098DF845
:102EB00024408DF8250098688DF81F0098684FEA27
:102EC00010208DF81E0098684FEA10408DF81D0004
:102ED00098684FEA10608DF81C00D8688DF82300C0
:102EE000D8684FEA10208DF82200D86821F06041A0
:102EF00008BF890C000C04918DF8210004F6022112
:102F0000D86859F82110000E8DF8200029B104A8C6
:102F1000039202938847039A029BD2F808291AB1B8
:102F200004A802939047029B09F580520292B2F8DE
:102F30001E2B92B2002A00F0B180029BB3F81A1B3C
:102F40001A2301F00F0103FB019101F5D951123150
:102F5000182210A805F0CAFF0AAB0DF1400C9E46DE
:102F60000393BCE80F00AEE80F009CE803008EE876
:102F700003009DF93C305A1C00F09B809C427FF47A
:102F800048AE039AE1B24846FEF7C4FC029AB2F892
:102F90001A3B013303F01F03A2F81A3BB2F81E3BA1
:102FA0009BB2002B3FF435AEB2F81E3B013B9BB207
:102FB000A2F81E3B2DE604A94846FFF747FCA7E60A
:102FC00002F4001100295968ADF81420C2F303423D
:102FD0008DF81B2009F5005214BF012000208DF848
:102FE000170092F815098DF824408DF8250098688F
:102FF0008DF81F0098684FEA10208DF81E00986821
:103000004FEA10408DF81D0098684FEA10608DF867
:103010001C00D8688DF82300D8684FEA10208DF87E
:103020002200D86821F0604108BF890C000C04918F
:103030008DF8210004F60221DB6859F821101B0EDF
:103040008DF8203019B104A802928847029AD2F86C
:1030500008390BB104A8984709F580530293B3F8D7
:103060001E3B9BB2002B7FF468AFD8F830200123C1
:10307000A3401343C8F83030CBE52B68BBE509F516
:10308000E65021461030FEF74FFEF16909F5EC508D
:1030900089B21830FEF76CFE2C6058E6D8F8301074
:1030A0000122A2400A43C8F830204FF000621A60A3
:1030B000AFE5039A214666E743884FF01A0C03F008
:1030C0000F030CFB030310B50446002098756388BA
:1030D00003F00F030CFB0343DA75608800F00F0068
:1030E0000CFB0040183008F07BFD628823889BB2FF
:1030F00092B283F010039A4204D12388013303F083
:103100001F0323806388013303F01F036380A388B8
:103110009BB20F2B03D8A38801339BB2A38010BDB1
:10312000F0B58B7D4D4E8DB00D460446002B4BD136
:10313000336813F0005C25D0FDF72CFB336803F0F7
:103140007F030133984284461ED24549434807E035
:10315000036803F07F035FFA82FC01339C4513D2BE
:103160000CEB01031B010CF101021B68C3F30363A9
:10317000082BEDD120462A466146FEF77BFA012056
:103180000DB0F0BD3368E0E70FCDEC46ACE80F00C2
:1031900095E803008CE803004FF0FF0E8DF814E073
:1031A0006F460FCF06AE0FC69CE8030086E803000B
:1031B000182204F5D8500DEB02011A30FFF77CFFFE
:1031C0004FF0FF300DB0F0BD306810F0005042D02D
:1031D000FDF7E0FA336803F07F030133834229D916
:1031E0001F4E1E4F05E03B6803F07F0301339842FA
:1031F00020D283191B01411C1A6812018446C8B2EF
:10320000F1D51B68C3F30363082B1BD00FCD6E46AB
:103210000FC695E8030086E80300EE468DF814C05B
:10322000BEE80F0006AF0FC796E80300182287E834
:103230000300BEE70B4B1B68C3F30363082B4FF07F
:10324000FF3CE3D120462A465FFA8CF1FEF712FAE2
:1032500001200DB0F0BD3368C2E700BF004002405E
:103260000824000470400240F0B58B7D4D4E8DB0B7
:103270000D460446002B4BD1336813F0005C25D07B
:10328000FDF764FA336803F07F0301339842844604
:103290001ED24549434807E0036803F07F035FFA05
:1032A00082FC01339C4513D20CEB01031B010CF192
:1032B00001021B68C3F30363082BEDD120462A46A5
:1032C0006146FEF727FB01200DB0F0BD3368E0E753
:1032D0000FCDEC46ACE80F0095E803008CE8030046
:1032E0004FF0FF0E8DF814E06F460FCF06AE0FC6FD
:1032F0009CE8030086E80300182204F5D8500DEB83
:1033000002011A30FFF7D8FE4FF0FF300DB0F0BDCC
:10331000306810F0005042D0FDF718FA336803F01F
:103320007F030133834229D91F4E1E4F05E03B68BE
:1033300003F07F030133984220D283191B01411C03
:103340001A6812018446C8B2F1D51B68C3F303633F
:10335000082B1BD00FCD6E460FC695E8030086E8FC
:103360000300EE468DF814C0BEE80F0006AF0FC78D
:1033700096E80300182287E80300BEE70B4B1B68A2
:10338000C3F30363082B4FF0FF3CE3D120462A46EA
:103390005FFA8CF1FEF7BEFA01200DB0F0BD336884
:1033A000C2E700BF00400A4008A4000470400A4081
:1033B0004C484D49F0B54D4D00F58052002300F5C5
:1033C000005428604A4D83820560C3820383A2F8BB
:1033D0001A3B01F50050A2F81C3BA2F81E3BA2F8D4
:1033E000D03CA2F8D23CA2F8D43CA2F8983DA2F876
:1033F0009A3DA2F89C3D01F5805284F80037C4F84C
:103400000C3984F80137C4F8103984F81439394D6F
:10341000394C8B828BB0CB820D600B83A2F81A3BA8
:10342000A2F81C3BA2F81E3BA2F8D03CA2F8D23C6A
:10343000A2F8D43CA2F8983DA2F89A3DA2F89C3D8F
:1034400080F8003780F8013722680192019DC0F8AA
:103450000C39C0F8103980F81439236802930298A7
:1034600023680393254A264B11601D60039A236845
:103470000493244B24491A60244B049A1A60086070
:1034800006F06AF823680593059A23680693204B93
:10349000069F186023680793079E23680893089D7A
:1034A000236809931B4B099C1A601B4B1B481F6028
:1034B0001B4B1C491E601C4B1C4A1D601C4B1C6096
:1034C0001C4B1D4C0B60C0E900341C4848601C4874
:1034D0006FF07F44C2E900340BB0BDE8F04002F069
:1034E00071BC00BF143FFF1FF815FF1FF06DFF1FD9
:1034F000B01B0100D41B0100E47AFF1FEC6DFF1F1D
:103500003068FF1FE46DFF1F3868FF1FF015FF1FB5
:103510001470FF1F4C68FF1F4868FF1F0470FF1FD7
:103520000C70FF1FF46DFF1F1070FF1F1870FF1F3E
:103530000476FF1FEC1F0100C0A81E02C0A81EFFDA
:103540005068FF1F2DE9F04F9248DFF8B082924F8C
:10355000924E89B005F0E2FA0120002105F0ECFA64
:1035600001212A2005F0BCFF0121292005F0B8FF28
:103570000121282005F0B4FF00212A2005F086FF54
:103580000021292005F082FF0021282005F07EFF80
:103590000121062005F0A4FF0121052005F0A0FF70
:1035A00001210E2005F09CFF0121272005F098FF46
:1035B00001247B4B88F800402146002506201C7022
:1035C0003C70357005F062FF98F80010052005F09A
:1035D0005DFF39780E2005F059FF3178272005F07E
:1035E00055FF7048294601F0D3FB21466D4801F094
:1035F00021FC20216B4801F06FFC6A4801F05EFB62
:103600002146242005F06CFF2146242005F03EFFD2
:103610001721654806F0A6FD1824644805F0C4FB90
:1036200063480094192317221F2101F095FD60487B
:1036300002F02CF9FF2800F0B4825D4801F016FE7C
:10364000014604A805F01CFC12215A4806F08AFD28
:1036500004A9564805F07AFB544805F0A5FB564BE3
:10366000564A5B68524802A9CDE9022302F0B4F839
:103670001D21534806F076FD524808F0C1FC014672
:10368000504806F06FFD494805F08EFB4D4948480B
:1036900001F0F6FE4C4B0728186007D04B481C2160
:1036A00006F060FD414805F07FFBFEE7484B4948C6
:1036B0001988494E494C02F08BF9FDF727FA484822
:1036C000FDF77AFA474B3168454819600022FCF74C
:1036D000D9FE236843F0A04323602368DA01FCD5B8
:1036E00000202568FDF746F9236B2363236823F048
:1036F0007F032360236843F00F032360AB0000F1D6
:10370000CB85364C236823F0805323602368DF0188
:10371000FCD40120FDF72EF923689D000AD5A36A89
:10372000980607D4A36A23F0FF03A362A36A43F0B9
:103730002003A3622C4B294C2C4AC3F8042823688D
:1037400013F0005A40F0B78329482A4DDFF8B080C3
:10375000294F1A2106F006FD2368544604EB05099B
:103760004FEA0919D9F80030C3F303630E2B00F2B6
:10377000D780DFE813F08E037C036A03D5004F0384
:10378000D5003D03D5002B03ED02DB02D500470039
:10379000D500C9021D0700003C68FF1FF415FF1F7C
:1037A0003468FF1F4C76FF1FEC180100640EFF1FEA
:1037B000CC76FF1F1C1901000470FF1FEC1F0100D5
:1037C00030190100740CFF1F0876FF1F501901000B
:1037D000580CFF1F5068FF1F3C0CFF1F00400A40A1
:1037E000143FFF1F2C68FF1F145FFF1FC94A000012
:1037F0000C1B010008A4000480BFF5BFE86DFF1F8B
:103800008C400A400421814806F0ACFC002351465C
:103810000A227F4805F0EEFA1D217E4806F0A2FC40
:10382000D9F80030990240F16E877B48102106F0EC
:1038300099FCD9F808A0D9F8043009EB070B23F05C
:1038400060490721754806F08DFC00231022494687
:103850006F4805F0CFFA0121714806F083FC0A2178
:10386000704806F07FFC002310224FEA1A61684876
:1038700005F0C0FA01216C4806F074FC0023102208
:10388000CAF30741624805F0B5FA0121664806F01F
:1038900069FC00231022CAF307215D4805F0AAFA4B
:1038A0000121614806F05EFC002310225FFA8AF1D4
:1038B000574805F09FFA5BF808905B48012106F035
:1038C00051FC002310224FEA1961514805F092FA89
:1038D0000121554806F046FC00231022C9F3074198
:1038E0004B4805F087FA01214F4806F03BFC0023C6
:1038F0001022C9F30721464805F07CFA01214A4805
:1039000006F030FC5FFA89F100231022404805F0F0
:1039100071FA4348012106F025FC3D4805F044FAC0
:10392000424B1B68013403F07F03E4B201339C4235
:10393000A246FFF413AF3E483E4CFDF7D3F93E4B91
:1039400031683B4819600022FCF73CFE236843F0D5
:10395000A04323602368DA01FCD500202568FCF72A
:103960003DFF236B2363236823F07F0323602368D9
:1039700043F00F032360AB0000F1B3862D4C2368A6
:1039800023F0805323602368DF01FCD40120FCF77F
:1039900025FF23689E000AD5A36A9D0607D4A36A63
:1039A00023F0FF03A362A36A43F02003A362214C28
:1039B000224A23682249C2F8041813F0005940F043
:1039C00099842048204D214F214E1A2106F0CAFB30
:1039D00023684C4604EB05084FEA0818D8F8003075
:1039E000C3F303630E2B00F2C280DFE813F045013E
:1039F00033012101C0000601C0006901C000570168
:103A00007B01F400C0003300C000E200DC190100BB
:103A1000640EFF1F9C1A0100BC1A0100E41A010089
:103A2000181A0100EC1A01004C19010000400A406C
:103A3000F815FF1F00400240103FFF1FF835FF1F21
:103A4000894A00000C1B0100082400048C4002403D
:103A500080BFFDBF0421C74806F084FB0023494610
:103A60000A22C54805F0C6F9C4481D2106F07AFBB4
:103A7000D8F800309B0240F13986C148102106F089
:103A800071FBD8F80890D8F80430B04423F0604AAD
:103A90000721BC4806F066FB002310225146B648B9
:103AA00005F0A8F90121B84806F05CFB0A21B748E7
:103AB00006F058FB002310224FEA1961AE4805F0CA
:103AC00099F90121B24806F04DFB00231022C9F3F9
:103AD0000741A94805F08EF90121AD4806F042FBE7
:103AE00000231022C9F30721A34805F083F901211F
:103AF000A74806F037FB002310225FFA89F19E48A1
:103B000005F078F958F80780A148012106F02AFB52
:103B1000002310224FEA1861974805F06BF9012144
:103B20009B4806F01FFB00231022C8F30741924870
:103B300005F060F90121964806F014FB00231022DD
:103B4000C8F307218C4805F055F90121904806F08B
:103B500009FB5FFA88F100231022874805F04AF933
:103B60008948012106F0FEFA834805F01DF9894BCA
:103B70001B68013403F07F03E4B201339C42A14689
:103B8000FFF428AFFDF7CAFAFDF7ACFC824B012128
:103B9000082204A8D971DA7205F036F909B0BDE837
:103BA000F08F17217D4806F0DDFA734805F0FCF828
:103BB00043E504216F4806F0D5FA494600230A225E
:103BC0006D4805F017F91121754806F0CBFA6A48DF
:103BD00005F0EAF8CBE70421664806F0C3FA494647
:103BE00000230A22644805F005F911216D4806F00A
:103BF000B9FA614805F0D8F8B9E704215D4806F044
:103C0000B1FA0A22494600235B4805F0F3F80F2178
:103C1000654806F0A7FAD8F800309A024CBF63480E
:103C20006348112106F09EFA534805F0BDF89EE75F
:103C30000421504806F096FA494600230A224E48CD
:103C400005F0D8F80E215B4806F08CFA4A4805F0DA
:103C5000ABF88CE70421474806F084FA4946002374
:103C60000A22454805F0C6F80E21534806F07AFAB4
:103C7000414805F099F87AE704213E4806F072FAC7
:103C8000494600230A223C4805F0B4F812214B486B
:103C900006F068FA384805F087F868E704213548E7
:103CA00006F060FA494600230A22334805F0A2F8DC
:103CB0001221434806F056FA2F4805F075F856E7EA
:103CC00004212C4806F04EFA494600230A222A48CD
:103CD00005F090F811213B4806F044FA264805F01B
:103CE00063F844E70421234806F03CFA49460023E0
:103CF0000A22214805F07EF80F21334806F032FAF7
:103D00001D4805F051F832E704211A4806F02AFA56
:103D1000514600230A22184805F06CF8112120486A
:103D200006F020FA144805F03FF8F9E5042111489F
:103D300006F018FA514600230A220F4805F05AF8F7
:103D40001121184806F00EFA0B4805F02DF8E7E5AA
:103D50000421084806F006FA514600230A220648C4
:103D600005F048F80F21184806F0FCF9024805F064
:103D70001BF8D5E5DC190100640EFF1F9C1A010039
:103D8000BC1A0100E41A0100181A0100EC1A010023
:103D90004C19010000400240880CFF1F041901006B
:103DA000F81A0100541A0100F8190100081A01005C
:103DB0001C1A0100301A0100681A0100E419010000
:103DC000781A0100401A01008C1A010004217D4874
:103DD00006F0C8F9514600230A227B4805F00AF88C
:103DE00012217A4806F0BEF9774804F0DDFF97E526
:103DF0000421744806F0B6F9514600230A2272489D
:103E000004F0F8FF1121724806F0ACF96E4804F096
:103E1000CBFF85E504216B4806F0A4F90A22514640
:103E20000023694804F0E6FF0F216A4806F09AF97A
:103E3000D9F8003098024CBF67486848112106F055
:103E400091F9614804F0B0FF6AE504215D4806F08D
:103E500089F9514600230A225B4804F0CBFF0E216A
:103E60005F4806F07FF9584804F09EFF58E50421AA
:103E7000544806F077F9514600230A22524804F0CC
:103E8000B9FF0E21574806F06DF94F4804F08CFF3A
:103E900046E504214B4806F065F9514600230A2205
:103EA000494804F0A7FF12214F4806F05BF9464845
:103EB00004F07AFF34E511214C4806F053F9A36A67
:103EC00099064BBF1121122149484A4806F04AF988
:103ED0003D4804F069FF1621474806F043F9474979
:103EE0000C684B6B0A68496B02F07F02C1F30361F7
:103EF00001320431B2EB410FC0F0168404F07F04AC
:103F0000C3F30363053C0133A4EB4304E5B23B4F29
:103F10002D48396801F07F010131491BC9B22029C0
:103F2000A8BF202104F038FF274804F03DFF1621E8
:103F3000334806F017F93B687A6B234803F07F0398
:103F4000C2F3036201330432B3EB420F38BF0024E3
:103F50004FF0000321464FF00A0238BF254604F017
:103F600049FF194804F020FF244B1C681B6804F02B
:103F70007F040134641B03F07F03E4B201339C42ED
:103F8000BFF4D9AC1F4DDFF884801F4F04EB050947
:103F90004FEA0919D9F80030C3F303630E2B00F27E
:103FA000C480DFE813F0670155014301C200280116
:103FB000C2001601C2000401F200E000C200350098
:103FC000C200CE00DC190100640EFF1F781A010048
:103FD000401A0100F8190100081A01001C1A01001A
:103FE000301A0100681A0100E4190100701901007B
:103FF0008419010098190100AC19010000400A4021
:10400000C419010008A4000480BFF5BF8C400A4019
:104010000421A44806F0A6F800230A222146A2485B
:1040200004F0E8FEA1481D2106F09CF8D9F8003004
:104030009B0200F189839E48102106F093F8D9F87D
:1040400008B0D9F80430B944C3F38A4A0721994823
:1040500006F088F8002310225146934804F0CAFE67
:104060000121954806F07EF80A21944806F07AF876
:10407000002310224FEA1B618B4804F0BBFE012194
:104080008F4806F06FF800231022CBF307418648D3
:1040900004F0B0FE01218A4806F064F800231022E3
:1040A000CBF30721804804F0A5FE0121844806F0E7
:1040B00059F8002310225FFA8BF17B4804F09AFE36
:1040C00059F808907E48012106F04CF80023102290
:1040D0004FEA1961744804F08DFE0121784806F01A
:1040E00041F800231022C9F307416F4804F082FE13
:1040F0000121734806F036F800231022C9F3072186
:10410000694804F077FE01216D4806F02BF85FFA4C
:1041100089F100231022644804F06CFE66480121F6
:1041200006F020F8604804F03FFE664B1B6801343F
:1041300003F07F03E4B201339C42FFF427AFFFF7A3
:10414000FABB0421574806F00DF800230A22214645
:10415000554804F04FFE11215B4806F003F8524821
:1041600004F022FEE1E704214E4805F0FBFF0023A6
:104170000A2221464C4804F03DFE1121534805F027
:10418000F1FF494804F010FECFE70421454805F04F
:10419000E9FF00230A222146434804F02BFE0F21A9
:1041A0004B4805F0DFFF404804F0FEFDBDE7042169
:1041B0003C4805F0D7FF00230A2221463A4804F084
:1041C00019FE1221434805F0CDFF374804F0ECFDFD
:1041D000ABE70421334805F0C5FF00230A2221463E
:1041E000314804F007FE11213B4805F0BBFF2E4883
:1041F00004F0DAFD99E704212A4805F0B3FF0A220A
:1042000000232146284804F0F5FD0F21334805F02E
:10421000A9FFD9F800309A024CBF3148314811212A
:1042200005F0A0FF204804F0BFFD7EE704211D48F3
:1042300005F098FF00230A2221461B4804F0DAFD0E
:104240000E21294805F08EFF174804F0ADFD6CE7FC
:104250000421144805F086FF00230A222146124853
:1042600004F0C8FD0E21214805F07CFF0E4804F043
:104270009BFD5AE704210B4805F074FF00230A2236
:104280002146094804F0B6FD1221194805F06AFFDD
:10429000054804F089FD48E70120FCF76BFBFFF7B8
:1042A00030BA00BFDC190100640EFF1F9C1A010028
:1042B000D01A0100E41A0100181A0100EC1A0100DA
:1042C0004C19010000400A40F81A0100541A01007C
:1042D0008C1A0100781A0100401A0100F819010037
:1042E000081A01001C1A0100301A0100681A0100A6
:1042F000E41901001121BC4805F034FFA36A9C06B3
:104300004BBF11211221B948B94805F02BFFB9481C
:1043100004F04AFD1621B84805F024FFB7490C689F
:104320004B6B0A68496B02F07F02C1F303610132F3
:104330000431B2EB410FC0F0F48104F07F04C3F309
:104340000363053C0133A4EB4304E5B2AB4EA9483B
:10435000316801F07F010131491BC9B22029A8BF92
:10436000202104F019FDA34804F01EFD1621A448E5
:1043700005F0F8FE3368726B9E4803F07F03C2F3CA
:10438000036201330432B3EB420F38BF00244FF015
:10439000000321464FF00A0238BF254604F02AFDEB
:1043A000944804F001FD954B1C681B6804F07F04E1
:1043B0000134641B03F07F03E4B20133A3427FF6B0
:1043C000E1AB904D904F914E04EB05084FEA081871
:1043D000D8F80030C3F303630E2B00F29E80DFE8B1
:1043E00013F06E015C014A019C002F019C00F0005B
:1043F0009C00DE00CC00BA009C000F009C00A800CE
:104400000421834805F0AEFE00230A2221467948A4
:1044100004F0F0FC1D217F4805F0A4FED8F8003020
:10442000990200F185817C48102105F09BFED8F8A7
:1044300008A0D8F80430B044C3F38A49072177486C
:1044400005F090FE0023102249466A4804F0D2FC91
:104450000121734805F086FE0A21724805F082FEAC
:10446000002310224FEA1A61624804F0C3FC0121C4
:104470006D4805F077FE00231022CAF307415D481E
:1044800004F0B8FC0121684805F06CFE00231022FE
:10449000CAF30721574804F0ADFC0121624805F03A
:1044A00061FE002310225FFA8AF1524804F0A2FC58
:1044B00058F807805C48012105F054FE00231022C3
:1044C0004FEA18614B4804F095FC0121564805F06D
:1044D00049FE00231022C8F30741464804F08AFC35
:1044E0000121514805F03EFE00231022C8F30721A8
:1044F000404804F07FFC01214B4805F033FE5FFA91
:1045000088F1002310223B4804F074FC4448012148
:1045100005F028FE374804F047FC384B1B6801348F
:1045200003F07F03E4B201339C42FFF44DAFFFF789
:1045300029BB0421364805F015FE00230A22214636
:104540002C4804F057FC1121384805F00BFE29488F
:1045500004F02AFCE1E704212D4805F003FE0023C6
:104560000A222146234804F045FC1121304805F079
:10457000F9FD204804F018FCCFE70421244805F099
:10458000F1FD00230A2221461A4804F033FC0F21D2
:10459000284805F0E7FD174804F006FCBDE70421B4
:1045A0001B4805F0DFFD00230A222146114804F0D4
:1045B00021FC1221204805F0D5FD0E4804F0F4FB43
:1045C000ABE70421124805F0CDFD00230A22214665
:1045D000084804F00FFC1121184805F0C3FD0548F8
:1045E00004F0E2FB99E700BF701901008419010093
:1045F00098190100640EFF1FAC1901000040024031
:10460000C4190100082400048C40024080BFFDBF93
:10461000DC1901009C1A0100D01A0100E41A010003
:10462000181A0100EC1A01004C190100F81A0100D7
:10463000541A01008C1A0100781A0100401A010076
:104640000421474805F08EFD0A22002321464548F3
:1046500004F0D0FB0F21444805F084FDD8F8003069
:1046600098024CBF41484248112105F07BFD3D486E
:1046700004F09AFB51E70421394805F073FD00234B
:104680000A222146374804F0B5FB0E21394805F0CF
:1046900069FD344804F088FB3FE70421304805F009
:1046A00061FD00230A2221462E4804F0A3FB0E21BF
:1046B000314805F057FD2B4804F076FB2DE7042127
:1046C000274805F04FFD00230A222146254804F023
:1046D00091FB1221294805F045FD224804F064FBB6
:1046E0001BE70120FCF77AF8FFF748B924481021AE
:1046F00005F038FDD8F80890D8F80430B044C3F37A
:104700008A4AFFF7C5B91E48102105F02BFDD9F8DC
:1047100008A0D9F8043009EB070BC3F38A49FFF767
:1047200090B80024254611E600242546FFF7EFBB8C
:104730001448102105F016FDD8F808A0D8F8043068
:10474000B04423F0604979E60E48102105F00AFDD7
:10475000D9F808B0D9F80430B94423F0604A75E4B8
:10476000DC190100640EFF1FF8190100081A01008E
:104770001C1A0100301A0100681A0100E419010036
:10478000D01A0100BC1A0100F0B583B004F0E4FEB9
:10479000354B364C364F374E054693E80300364BC3
:1047A000206018601971354B3549042204F2DF107E
:1047B0001A8004F09BFB3349042204F2E31004F056
:1047C00095FB314B3288009369467B682F480193F3
:1047D00001F0D0F82D4821464FF4007201F092F913
:1047E0002A4801F069F9002835D00B21284805F046
:1047F000B9FC2849384604F01BFA202005F038FDA2
:1048000000230A223168234804F0F4FA214804F016
:10481000CBFA214A137883F0010313701F49134820
:104820000B6801334FF400720B60FF2107F054FA5C
:104830001B4B1978052081F00101197004F026FE48
:1048400004F08AFE0322451B69461648009504F0D1
:104850004DFB03B0F0BD0821134805F083FC0D4863
:1048600004F0A2FADAE700BF401B0100046EFF1F4C
:10487000F46DFF1F540CFF1FFC75FF1F026EFF1F1E
:104880004068FF1F4468FF1FEC1F01005068FF1FB6
:10489000281B0100640EFF1FF415FF1FFC6DFF1F96
:1048A000E86DFF1FFD6FFF1F341B01002DE9F04174
:1048B000284B294D1978294E294F84B081F00101E8
:1048C0000620197004F0E2FD2B88264A1178F15475
:1048D0005A1C2A8004F0CCF82C88CDE9020104226D
:1048E00002A9301904F002FB04F108000422394641
:1048F0000C3416FA80F004F0F9FA97F80B802C804B
:1049000004F02AFE184B2C881B68C01A4FEA08686E
:1049100020F07F40042240EA08000DEB02010190E4
:10492000301904F0E3FA201D0C34A4B216FA80F01A
:1049300007F10C01082204F0D9FAB4F5ED7F2C80C0
:1049400002D804B0BDE8F08104B0BDE8F041FFF743
:104950001BBF00BF3468FF1F026EFF1F046EFF1FE6
:104960005C0CFF1F006EFF1F1470FF1FFFFFFFFF97
:104970002DE9F0413C4B3D4C1970054606460F466B
:104980000FCD0FC495E8030086B084E80300FFF75D
:104990008DFF374B93E8030004908DF8141004F05A
:1049A00067F80546884604F0D7FD324B1B68C01AED
:1049B00005F042FF2AA3D3E9002306F0E1F80246FE
:1049C00028460D464146144605F082FF02460B4636
:1049D0002046294605F0F4FD04460D46002F36D149
:1049E00030238DF813304FF480620021224807F005
:1049F00073F9F07A3168029004A82B460191009077
:104A00001E491D48224606F0EFFFF37A93B10025B8
:104A1000194FDFF870802C46384607F0F1FA34441D
:104A20004146227B384406F0DFFF0135F37AECB2D1
:104A3000A342F1D8104807F0E3FA01460E4805F00A
:104A400091FB0F4804F0B0F906B0BDE8F081012FEA
:104A500004BF31238DF81330C5E700BFAFF30080EA
:104A60000000000080842E41006EFF1F5C0CFF1FC1
:104A7000681B01001470FF1F3C08FF1F481B01004A
:104A8000640EFF1F601B010010B40B490B4A0B683A
:104A90000B4C013383B00B6013782468019483F0CE
:104AA0000103019C1370074B00211C6003B05DF8EB
:104AB000044BFFF75DBF00BF4068FF1F3C68FF1F4E
:104AC000E47AFF1F4868FF1F10B40A490A4A0B68BE
:104AD0000A4C013383B00B601378246801940121E0
:104AE0004B40019C1370064B1C6003B05DF8044BF7
:104AF000FFF73EBF4468FF1FE86DFF1FE47AFF1F0A
:104B00004C68FF1F30B54948494C4A4D87B0FCF707
:104B1000F1FD4948FCF73EFF484A494913680093B4
:104B2000009B09685B1AB3F5FA7F84BF01232370E9
:104B30001368444A01931268019B9B1AB3F5FA7FEC
:104B400084BF01232B70404B0620197804F09EFC93
:104B50002978052004F09AFC21780E2004F096FCB8
:104B60003A4B2720197804F091FC394801F06AF893
:104B7000044608B907B030BD1821364805F0F2FAEE
:104B800021463548354C04F007F9334804F00CF958
:104B90000521334805F0E6FA02A82D4900F0CAFFC6
:104BA0002D4902A804F044F807212E4805F0DAFA4E
:104BB000274800F0D5FF0146274804F0EDF82648C5
:104BC00004F0F2F8FF222146214801F0A5F8002860
:104BD000C4BF002323540921234805F0C3FA1E480B
:104BE00004F0E2F81D4807F00BFA01461B4805F0F7
:104BF000B9FA194804F0D8F81C4B1D4A5B681448F0
:104C0000CDE9042300F0ACFF04A90246104800F0EF
:104C1000B1FE184807F0F4F9164902460C4800F0B6
:104C200071FF0B4800F048FF07B030BDF815FF1FBB
:104C30003C68FF1FE86DFF1F143FFF1FE47AFF1F52
:104C40004868FF1F4C68FF1F3468FF1FF415FF1FE3
:104C50005068FF1F701B0100640EFF1F2070FF1FB4
:104C60008C1B0100941B01009C1B0100F46DFF1FB5
:104C7000EC1F01003C08FF1F90F81CC04160BCF114
:104C8000020FC26001D18368184703F063BF00BF01
:104C900010B400248460C460046144618461C46110
:104CA0000462446284628485046344638463C463ED
:104CB000C0E900125DF8044B704700BF436810B4B0
:104CC0001C685A682168114302682160164C174914
:104CD0001460D160164C174914611160417A164A6C
:104CE0005C180C3194F82CC053F8214002EBCC0135
:104CF00049680C60017A5C1803EB810194F818C0D4
:104D0000CC6902EBCC0149680C60817A5DF8044BF8
:104D1000581803EB810390F84000596C02EBC00275
:104D200053681960704700BF01401F000110003830
:104D30000110007800001F800420010010B44268B8
:104D400090F809C0104B944400219CF82CC003EB50
:104D5000CC0CDCF80440216090F808C094449CF826
:104D600018C003EBCC0CDCF804402160847A0068A6
:104D70002244064C92F8402003EBC2035B681960A2
:104D800004605DF8044B70470420010001401F00DF
:104D900030B5254B4468A34210D0437A234493F89E
:104DA0002CE08E4509D004F12B02002312F801CF2C
:104DB0008C4519D00133042BF8D130BD0B292CD0F0
:104DC000072907D1194A137823F0030343F001039D
:104DD0001370E2E71C29E0D1144A137823F003038F
:104DE00043F002031370D8E7226811686268114229
:104DF00011D00F4A02EBCE0E0025DEF804100D6034
:104E0000E11891F82C1002EBC10203F10C01556876
:104E100054F821202A60437230BD044A137823F0ED
:104E200003031370B9E700BF881C0100E07AFF1F7D
:104E30000420010030B5254B4468A34210D0037A0A
:104E4000234493F818E08E4509D004F1170200239B
:104E500012F801CF8C4519D00133042BF8D130BDA5
:104E60000C292CD0082907D1194A137823F00C03F8
:104E700043F004031370E2E72729E0D1144A1378C2
:104E800023F00C0343F008031370D8E7226811687D
:104E90006268114211D00F4901EBCE0E04EB030CF6
:104EA000DEF80420002515609CF818C004EB83028E
:104EB00001EBCC01D4694A681460037230BD044A26
:104EC000137823F00C031370B9E700BF881C0100AE
:104ED000E07AFF1F042001002A4A43689A4230B456
:104EE00013D0827A1A4492F840208A420BD093F869
:104EF00040C08C4525D093F841C08C453BD093F8F9
:104F000042C08C453AD030BC70470D2913D00E29D1
:104F100007D11D4C227822F0300242F0100222709C
:104F2000DFE71B29DDD1184C227822F0300242F055
:104F300020022270D5E7144C227822F03002227031
:104F4000CFE700218C461C6825685C68254210D09C
:104F50000E4C04EBC20200255268156003EB0C02F4
:104F600003EB8C0392F8402004EBC2045A6C636894
:104F70001A608172C7E701218C46E4E702218C4662
:104F8000E1E700BF881C0100E07AFF1F0420010058
:104F900070B4826B4B4B1279DA77426B12791A77C5
:104FA000826B12791A77026B2AB34368DB689A42E4
:104FB00044D9446B816BD21A236802631D6800F1E7
:104FC0002C04A5424FF001025AD00468E56815F0A0
:104FD000804F1D682AD12D781E6845F000450136A6
:104FE0001E606563374B0979D97612B1426B12792D
:104FF000DA7670BC70470168334CC36B0A63CC62CD
:10500000CC6824F08044CC601C68304924684FF0A0
:10501000030C8C4280F82DC03AD1197F5A600229C6
:10502000DA603AD170BC9A68184610472D881E681D
:1050300045F0004502361E606563D3E7436B1B688D
:10504000DC8B260402F1FF3133D4C1F30E01D98386
:10505000DC8B816BA4B2DC820C68E58B2D0420D440
:10506000C2F30E05E583E58BADB2E5821D68002431
:10507000013A046300F12C0418BF0122A542A4D117
:105080000368DC6890F82C4044F000445C63A9E7B6
:1050900018461146234670BC184770BC184603F0EA
:1050A00059BDE58BC2F3080605F47E453543E5831B
:1050B000D9E7DC8BC1F3080104F47E442143D98392
:1050C000C6E700BF0080004000000FFF794C0000E1
:1050D00008B50248FFF75CFF08BD00BF0C76FF1F54
:1050E00008B50248FFF754FF08BD00BF4C76FF1F0C
:1050F00008B50248FFF74CFF08BD00BF8C76FF1FC4
:1051000008B5084A08490948FFF7C2FD084A094995
:105110000948FFF7BDFD094A09490A48FFF7B8FDEC
:1051200008BD00BF881C010000C002400C76FF1FB4
:105130001C1D010000D002404C76FF1FB01D010075
:1051400000C00A408C76FF1F014B1962704700BFF8
:10515000CC76FF1F03F070BC30B4064D064C2970AE
:1051600022700649064A9DF908000B70107030BC89
:10517000704700BFA10CFF1FA20CFF1FA30CFF1F55
:10518000A00CFF1F30B587B0044600F05DFE334B26
:105190000093684601F01EFC054680B110F10D0F2A
:1051A0000DD010F1100F51D00021062001F02EFA81
:1051B0000121032001F012FA284607B030BD02F0A9
:1051C00015FE2749274802F02FFE274A00231168C1
:1051D00084F8293023616361A3612362636241F231
:1051E0004F33012299422260E26132D8012104202A
:1051F00001F00CFA0121052001F008FA0121062036
:1052000001F004FA0121042001F0E8F90121052050
:1052100001F0E4F90121062001F0E0F9012108463E
:1052200001F0F4F90121022001F0F0F9012103203D
:1052300001F0ECF90121084601F0D0F9012102202A
:1052400001F0CCF90121032001F0C8F9284607B08C
:1052500030BDD32001F0F2F9C8E700BFC957000004
:1052600049510000555100008077FF1F10B50368B9
:105270008CB0044633B302A8043402F001F80922CA
:105280000021204606F028FD9DF80C209DF80F30E7
:1052900093421AD09DF810309DF80D10994209D113
:1052A0009DF80E0000900A49204606F09DFB20461E
:1052B0000CB010BD07490622204603F017FE204619
:1052C0000CB010BDFFF75EFFD5E79DF80D30E7E7A6
:1052D0004C1E0100441E010070B5036882B00446F4
:1052E00073B3E3691BB1002323616361A36101F020
:1052F000ADFB002830DB1B4D2A6800920123009E85
:10530000238505E001F0A0FB94F829305B0708D164
:105310002B680193019B226F9B1B93424FF000006F
:10532000F0D32122002104F14D0006F0D5FC94F8C1
:10533000290010F0030306D184F8283002B070BDB4
:10534000FFF720FFCDE701F0DBFC002001F07CFB44
:1053500094F8290002B070BD042084F8290002B03E
:1053600070BD00BFE47AFF1F2DE9F0411546A2B0E1
:1053700002689DF8A07004460E469846002A61D047
:1053800088220021684606F0A7FC3146684606F0F0
:10539000C5FD012F22698DF83F5038BF01278DF8D8
:1053A0002170002A3DD1C0238DF841304FF4D473D1
:1053B000ADF8423001238DF84430032D51D0022D39
:1053C00043D0684601F00EFC002835DB40F2037341
:1053D00004F14D05238521220021284606F07CFC9E
:1053E000304606F00DFE31460246284603F07EFDAB
:1053F0000DF1410104F11000042200F05FFE236969
:10540000A3616FF07F4262610021042001F0FEF889
:105410000021012001F0FAF894F8290022B0BDE83B
:10542000F081042204F110010DF1410003F05EFD52
:105430009DF84430642BC0D1092084F8290022B0A3
:10544000BDE8F081FFF79EFE9AE7404606F0D8FDE2
:1054500041468DF82300421C0DF1450003F046FD46
:10546000AFE798F800308DF8223008F1020198F883
:1054700001308DF8233009A806F050FDA1E700BFE8
:1054800000B583B0012200920023FFF76DFF03B047
:105490005DF804FBF0B51E460368A3B004460D4654
:1054A0001746002B42D088220021684606F014FCE3
:1054B0002946684606F032FD8DF8216001261F4B13
:1054C0008DF83F603946684632468DF84460109347
:1054D00001F0CAFB00282CDB40F6022304F14D0743
:1054E000238521220021384606F0F6FB284606F0E7
:1054F00087FD29460246384603F0F8FC0DF14101CC
:1055000004F11000042200F0D9FD2369A3616FF0BB
:105510007F4262610021042001F078F800213046CA
:1055200001F074F894F8290023B0F0BDFFF72AFECB
:10553000B9E70B2084F8290023B0F0BD00C0A80112
:10554000F0B587B005460F46FFF7C6FE032808D121
:105550002B683BB3002001F077FA95F8290007B0DB
:10556000F0BD684602AE01F06FFB304601F06CFB07
:105570000DF10E046A4614F801CD02F801CBB442D5
:10558000F9D19DF8012009499DF80030204606F028
:105590002BFA3B46064A21462846FFF77BFF2B683D
:1055A000002BD7D12846FFF7EDFDD3E7581E0100A9
:1055B0006C1E0100F0B5043983B0044615462E294F
:1055C00042D8DFE801F057415C414173414141411C
:1055D0004141419A411841414141414141A141412B
:1055E000414141414141414141414141AB41B341CF
:1055F00041414141430002F10A06304606F000FDF8
:1056000004F12A03074621220021184606F064FB14
:10561000BAB2002A40F0B780626A4AB1304600232D
:1056200000E0626A10F8011DD1540133062BF8D155
:1056300095F901302362AB7884F84B30EA7884F82E
:105640004C20022384F8293003B0F0BD90F8286084
:10565000012EF9D113680361D368436152688261F6
:105660000323002180F82930042000F0CFFF00211F
:1056700030466FE092F90030036203B0F0BD426A39
:1056800062B105F12C01002300E0626A11F8010DFE
:10569000D0540133062BF8D100236362294604F16C
:1056A0004D0003B0BDE8F04006F038BC92F86360EE
:1056B000002E54D100F14D0731462122384606F024
:1056C0000BFB284606F09CFC29460246384603F0B0
:1056D0000DFC012384F8283026616661A661284606
:1056E00006F08EFCFF2395F862200093C1B205F10D
:1056F0002103284601F048FAA6E71378002BA3D02F
:10570000022380F829309FE7006A00289CD00822F5
:10571000294603F0EBFB0023236295E792F9003062
:10572000002B91D0062380F829308DE71378012BC8
:105730001ED0002B88D190F82820012A30D0032ACF
:1057400004BF072380F829300121042000F05EFF08
:105750000121084603B0BDE8F04000F057BF0B231D
:10576000012180F8293003B0BDE8F040FFF7E8BE22
:1057700090F82830012B0AD0032B7FF465AF082363
:1057800080F8293060E7314603F0B0FB44E7C16997
:1057900000297FF459AF032380F829300420D9E78A
:1057A000C269062180F8291012B103614361836147
:1057B000044D002461B22846013402F079FF0B2C1D
:1057C000F8D1C1E74C78FF1F03460A460148194645
:1057D000FFF7F0BECC76FF1F30B503684D688BB085
:1057E000044693B10020E06107900690059508906B
:1057F00001F0E6F905A801F0D3F90599089A069B8E
:1058000021616261A3610BB030BDFFF7BBFCE9E72A
:105810000069704790F82930032B04D0073B012B17
:1058200001D9002070474D30704700BF90F82830F4
:105830003BB370B505460020044682B001F004F980
:105840002C6201F0F3F9A04218DB0F4C286A2268A1
:105850000092009E20B10DE001F0F6F8286A48B9E8
:1058600023680193019B9B1BB3F57A7F4FF00000E7
:10587000F2D3002000232B6202B070BD204602B09C
:1058800070BD6FF063007047E47AFF1F036810B5C6
:1058900004462BB1002001F0D7F894F8290010BD80
:1058A000FFF770FC002001F0CFF894F8290010BD3C
:1058B0002DE9F041054682B0104616460F4603F02A
:1058C000D3F918B1012002B0BDE8F08104460146C9
:1058D000052000F09BFE2146022000F097FE2C627E
:1058E000384602F0A9FC002826DB184C2B6A2268F7
:1058F0000192019F73B944F61F6803E001F0A4F818
:105900002B6A3BB923680093009BDB1B43454FF098
:105910000000F3D90121052000F078FE01210220CA
:1059200000F074FE286A0028CDD0706000230120AA
:105930002B6202B0BDE8F0810121052000F066FE77
:105940000121022000F062FE2046BCE7E47AFF1F3E
:10595000044B00204FF47F414EF66022186099629C
:105960001A677047CC76FF1F0020704703689B6B57
:10597000184700BF4968C0F890150023A0F88E258D
:10598000A0F88C350120704700B5036883B09B6B8D
:1059900001220DF10701984701280CBF9DF807006F
:1059A0004FF0FF3003B05DF804FB00BF704700BF4D
:1059B00090F90D104B1C07D010B50446034802F0B7
:1059C00077FEFF23637310BD704700BF4C78FF1F45
:1059D00030B5044690F90D5089B0002302204ABA30
:1059E0000393A4F88C35236105936B1CADF810006C
:1059F000ADF812201ED1022211461C48002302F0ED
:105A000077FD00280146607322DB002303AACDE95D
:105A100000231648012202F0C1FD102394F90D1055
:105A200012480DEB030202F079FD054698B1012002
:105A300009B030BD0D48294602F0BEFD0028DAD07D
:105A400094F90D10094802F033FEFF236373D2E787
:105A5000002009B030BD94F90D10044802F028FE72
:105A6000FF232846637309B030BD00BF4C78FF1F89
:105A700010B503684968DB6984B004460391114698
:105A8000984748B10122042394F90D000093114670
:105A900003AB02F0E9FB012004B010BD90F90D103A
:105AA0004B1C05D00369002B02DD024802F096BDB5
:105AB000002070474C78FF1F30B5102589B0B0F832
:105AC0008E1502460DEB0503D0F890050295019363
:105AD0000024B2F88C350590009449BA0220ADF844
